:020000020000FC
:10000000A2C018951895000000008F938FE08A9584
:10001000F1F78F910895F7DF6A95E9F77A95D9F7A7
:10002000089560E074E0F7DF08950F930CE50DB9D3
:100030000EB10FB10F9108950F93C398C4980EB1EC
:100040000FB10F910FB90EB107FFFDCF0FB1C49AD9
:1000500008950F93C39AC4980EB10FB10F910FB9C1
:100060000EB107FFFDCF0FB1C49A0895DEDFD9DFCF
:1000700009E3E2DFC8DF09E3DFDFC5DF0EE1DCDF34
:10008000C2DF00E5D9DFBFDF0CE6D6DFCADF07E756
:10009000D3DFB9DF0CE0D0DFB6DF01E0CDDFB3DFC7
:1000A00006E0CADFB0DF0895C0DF40E14F93F0E023
:1000B000E0E600E8C1DFA7DF0191CBDFA4DF4A95CE
:1000C000D9F74F914F93F0E0E0E700E9B5DF9BDF10
:1000D0000191BFDF98DF4A95D9F74F91F0E0E0E852
:1000E00000EAAADF90DF0191B4DF8DDF4A95D9F7EE
:1000F000089590E3A0E2F0E0E0E6A1939A95E9F795
:100100000895D0E0C0E60591013021F060960230FC
:1001100009F060960591003011F00993FBCF089526
:100120007F936F930F930CE064E071E06F937F9384
:10013000A89871DFA89A7F916F910A95B9F70F91EE
:100140006F917F9108950FE50DBF04E00EBF0FEF93
:1001500007BBC49A01E004BBA89A88DFCADFA4DF0A
:10016000C8DF40E3F0E0E0E60AE24F930193EF934B
:10017000FF939ADF60E074E04EDFFF91EF914F91C3
:0E0180004A9591F7CDDF60E07BE145DFE9CFE6
:00000001FF
