:020000020000FC
:0200000078C0C6
:1000040038C1000000008F938FE08A95F1F78F913B
:100014000895F7DF6A95E9F77A95D9F7089560E0CE
:1000240074E0F7DF08950F930CE50DB90EB10FB12D
:100034000F9108950F93C398C4980EB10FB10F9107
:100044000FB90EB107FFFDCF0FB1C49A08950F93F6
:10005400C39AC4980EB10FB10F910FB90EB107FF37
:10006400FDCF0FB1C49A0895DEDFD9DF09E3E2DFE3
:10007400C8DF09E3DFDFC5DF0EE1DCDFC2DF00E557
:10008400D9DFBFDF0CE6D6DFCADF07E7D3DFB9DF8E
:100094000CE0D0DFB6DF01E0CDDFB3DF06E0CADF7E
:1000A400B0DF0895C0DF40E14F93F0E0E0E600E800
:1000B400C1DFA7DF0191CBDFA4DF4A95D9F74F91C8
:1000C4004F93F0E0E0E700E9B5DF9BDF0191BFDF8C
:1000D40098DF4A95D9F74F91F0E0E0E800EAAADF0B
:1000E40090DF0191B4DF8DDF4A95D9F7089504E0DC
:1000F4000EBF0FE50DBF0FEF07BBC09A00E001BBB9
:100104000FEF02BBB1DF19D020D0CCDF789403E02D
:1001140005BF00E40BBF68940EF006D056D067D03C
:1001240014D07ED0BFDFF8CF0FEF07BBC498F1E047
:10013400EEE93CD0B7DFC6F7089590E3A0E2F0E023
:10014400E0E6A1939A95E9F708950FEF07BBC498E9
:10015400F1E0E8E62BD0F1E0EAE728D0F1E0ECE8C2
:1001640025D0089501202020202E20202020564430
:10017400432020202000022D2D2D2D2D2D2D2D2D21
:100184002D2D2D2D2D2D2D00034175746F52756E5F
:100194002020202020564D31610003484F4C44203C
:1001A40020202020202020564D316200D0E0C0E6DF
:1001B4000591013021F06096023009F060960591B6
:1001C400003011F00993FBCF089501E817BB02E555
:1001D4000DB9C0980FEF0FB9779BFECF3FB13F70B9
:1001E4000FEF0FB9779BFECF2FB1C09A089500E1AE
:1001F400FF24EE24DD24FF27220F331FDD1CEE1C19
:10020400FF1C0A9509F40895E0E112911D5F13FDA6
:1002140010831081105D17FD1083ED30B1F7ECCF22
:100224000FE0A02E3E2C32943A20B32D16D06093CA
:1002340063002E2C2A20B22D10D0609365001D2C53
:1002440012941A20B12D09D0609366000D2C0A2057
:10025400B02D03D0609367000895F2E0ECE600E06F
:10026400EB0FF01F64910895303132333435363753
:1002740038390F931F930FB70F930AE01EEB00005A
:1002840000001A95E1F70A95C9F700B30078003821
:1002940051F00EF026F40F910FBFE89406C00F91B1
:1002A4000FBF689402C00F910FBF1F910F91189553
:00000001FF
