:020000020000FC
:1000000076C0000000008F938FE08A95F1F78F9102
:100010000895F7DF6A95E9F77A95D9F7089560E0D2
:1000200074E0F7DF08950F930CE50DB90EB10FB131
:100030000F9108950F93C398C4980EB10FB10F910B
:100040000FB90EB107FFFDCF0FB1C49A08950F93FA
:10005000C39AC4980EB10FB10F910FB90EB107FF3B
:10006000FDCF0FB1C49A0895DEDFD9DF09E3E2DFE7
:10007000C8DF09E3DFDFC5DF0EE1DCDFC2DF00E55B
:10008000D9DFBFDF0CE6D6DFCADF07E7D3DFB9DF92
:100090000CE0D0DFB6DF01E0CDDFB3DF06E0CADF82
:1000A000B0DF0895C0DF40E14F93F0E0E0E600E804
:1000B000C1DFA7DF0191CBDFA4DF4A95D9F74F91CC
:1000C0004F93F0E0E0E700E9B5DF9BDF0191BFDF90
:1000D00098DF4A95D9F74F91F0E0E0E800EAAADF0F
:1000E00090DF0191B4DF8DDF4A95D9F708950FE5D0
:1000F0000DBF04E00EBF0FEF07BB0FE70ABBB4DF75
:1001000056D0DE98DE9ADE9835D0DE9ADE9806E488
:100110000093600002E70093610005E6009362002F
:1001200001E7009363000DE30093640008E400938B
:1001300069000AE700936A000FE0A02E192C1294C0
:100140001A20B12D3CD060936500292C2A20B22DB5
:1001500036D060936600382C32943A20B32D2FD0DD
:1001600060936700482C4A20B42D29D06093680022
:1001700099DFC8CF00E0902E802E30EA20E009B34E
:100180000078902F09B30078091729F068F0902FB4
:10019000839409F493942A9509F43A95303031F018
:1001A00011E01A95F1F7EECF902FF5CF089590E377
:1001B000A0E2F0E0E0E6A1939A95E9F70895F1E076
:1001C000ECEC00E0EB0FF01F649108953031323316
:0C01D00034353637383941424344454647
:00000001FF
