:020000020000FC
:1000000076C0000000008F938FE08A95F1F78F9102
:100010000895F7DF6A95E9F77A95D9F7089560E0D2
:1000200074E0F7DF08950F930CE50DB90EB10FB131
:100030000F9108950F93C398C4980EB10FB10F910B
:100040000FB90EB107FFFDCF0FB1C49A08950F93FA
:10005000C39AC4980EB10FB10F910FB90EB107FF3B
:10006000FDCF0FB1C49A0895DEDFD9DF09E3E2DFE7
:10007000C8DF09E3DFDFC5DF0EE1DCDFC2DF00E55B
:10008000D9DFBFDF0CE6D6DFCADF07E7D3DFB9DF92
:100090000CE0D0DFB6DF01E0CDDFB3DF06E0CADF82
:1000A000B0DF0895C0DF40E14F93F0E0E0E600E804
:1000B000C1DFA7DF0191CBDFA4DF4A95D9F74F91CC
:1000C0004F93F0E0E0E700E9B5DF9BDF0191BFDF90
:1000D00098DF4A95D9F74F91F0E0E0E800EAAADF0F
:1000E00090DF0191B4DF8DDF4A95D9F7089504E0E0
:1000F0000EBF0FE50DBF00E00ABB0FEF07BBB4DF7B
:100100000DD014D0CFDF04E806B903EC07B942D014
:1001100048D058D078D090D0C5DFF9CF90E3A0E296
:10012000F0E0E0E6A1939A95E9F70895F1E0E0E4C4
:1001300022D0F1E0E2E51FD0F1E0E4E61CD0089522
:1001400001202020202E2020202056444320202043
:100150002000012D2D2D2D2D2D2D2D2D2D2D2D2D35
:100160002D2D2D00014175746F52756E20202020B9
:1001700020564D316100D0E0C0E60591013021F0FC
:100180006096023009F060960591003011F00993F5
:10019000FBCF0895369A349BFECF349A84B095B045
:1001A000089522E330E05527442760E136952795EE
:1001B00010F4480D591D57954795379527956A9521
:1001C000B9F708956AE070E080E090E0CC24DD2487
:1001D000EE24FF1811E2221F331F441F551F1A95EA
:1001E00009F40895CC1CDD1CEE1CFF1CC61AD70AAE
:1001F000E80AF90A30F4C60ED71EE81EF91E8894E4
:10020000EACF0894E8CF00E1FF24EE24DD24FF27A5
:10021000220F331FDD1CEE1CFF1C0A9509F4089504
:10022000E0E112911D5F13FD10831081105D17FD39
:100230001083ED30B1F7ECCF0FE0A02E3E2C3294BE
:100240003A20B32D16D0609364002E2C2A20B22DB4
:1002500010D0609366001D2C12941A20B12D09D085
:10026000609367000D2C0A0CB02D03D060936800DA
:100270000895F2E0E0E800E0EB0FF01F64910895CC
:0A0280003031323334353637383967
:00000001FF
