:020000020000FC
:1000000076C0000000008F938FE08A95F1F78F9102
:100010000895F7DF6A95E9F77A95D9F7089560E0D2
:1000200074E0F7DF08950F930CE50DB90EB10FB131
:100030000F9108950F93C398C4980EB10FB10F910B
:100040000FB90EB107FFFDCF0FB1C49A08950F93FA
:10005000C39AC4980EB10FB10F910FB90EB107FF3B
:10006000FDCF0FB1C49A0895DEDFD9DF09E3E2DFE7
:10007000C8DF09E3DFDFC5DF0EE1DCDFC2DF00E55B
:10008000D9DFBFDF0CE6D6DFCADF07E7D3DFB9DF92
:100090000CE0D0DFB6DF01E0CDDFB3DF06E0CADF82
:1000A000B0DF0895C0DF40E14F93F0E0E0E600E804
:1000B000C1DFA7DF0191CBDFA4DF4A95D9F74F91CC
:1000C0004F93F0E0E0E700E9B5DF9BDF0191BFDF90
:1000D00098DF4A95D9F74F91F0E0E0E800EAAADF0F
:1000E00090DF0191B4DF8DDF4A95D9F7089504E0E0
:1000F0000EBF0FE50DBF0FEF07BBC09AB5DF1CD0D9
:1001000023D0D0DF07D05DD075D00FEF08BBC498E7
:10011000C9DFF8CF01E817BB02E50DB9C0980FEFB2
:100120000FB9779BFECF3FB13F700FEF0FB9779BB1
:10013000FECF2FB1C09A089590E3A0E2F0E0E0E690
:10014000A1939A95E9F70895F1E0ECE52BD0F1E061
:10015000EEE628D0F1E0E0E825D008950120202047
:10016000202E202020205644432020202000022D35
:100170002D2D2D2D2D2D2D2D2D2D2D2D2D2D2D00DC
:10018000034175746F52756E2020202020564D312A
:10019000610003484F4C442020202020202020567E
:1001A0004D316200D0E0C0E60591013021F060964B
:1001B000023009F060960591003011F00993FBCFF1
:1001C000089500E1FF24EE24DD24FF27220F331FD2
:1001D000DD1CEE1CFF1C0A9509F40895E0E1129164
:1001E0001D5F13FD10831081105D17FD1083ED302E
:1001F000B1F7ECCF0FE0A02E3E2C32943A20B32D75
:1002000016D0609364002E2C2A20B22D10D060935B
:1002100066001D2C12941A20B12D09D0609367003E
:100220000D2C0A20B02D03D0609368000895F2E0F1
:10023000ECE300E0EB0FF01F6491089530313233AE
:0602400034353637383971
:00000001FF
