:020000020000FC
:1000000076C0000000008F938FE08A95F1F78F9102
:100010000895F7DF6A95E9F77A95D9F7089560E0D2
:1000200074E0F7DF08950F930CE50DB90EB10FB131
:100030000F9108950F93C398C4980EB10FB10F910B
:100040000FB90EB107FFFDCF0FB1C49A08950F93FA
:10005000C39AC4980EB10FB10F910FB90EB107FF3B
:10006000FDCF0FB1C49A0895DEDFD9DF09E3E2DFE7
:10007000C8DF09E3DFDFC5DF0EE1DCDFC2DF00E55B
:10008000D9DFBFDF0CE6D6DFCADF07E7D3DFB9DF92
:100090000CE0D0DFB6DF01E0CDDFB3DF06E0CADF82
:1000A000B0DF0895C0DF40E14F93F0E0E0E600E804
:1000B000C1DFA7DF0191CBDFA4DF4A95D9F74F91CC
:1000C0004F93F0E0E0E700E9B5DF9BDF0191BFDF90
:1000D00098DF4A95D9F74F91F0E0E0E800EAAADF0F
:1000E00090DF0191B4DF8DDF4A95D9F708950FE5D0
:1000F0000DBF04E00EBF0FEF08BB0FE70ABBB4DF74
:1001000021D0DE9809D0CEDFDE9ADE9823D0DE9AA9
:10011000DE983DD0C7DFF8CF06E40093600002E52B
:100120000093610005E40093620001E50093630021
:100130000DE30093640008E4009369000AE700936C
:100140006A00089590E3A0E2F0E0E0E6A1939A95BA
:10015000E9F7089530EA20E050E0952E852E09B3A6
:100160000078902F09B30078091729F068F0902FD4
:10017000839409F493942A9509F43A95303031F038
:1001800011E01A95F1F7EECF902FF5CF08950FE01B
:10019000A02E192C12941A20B12D16D06093650050
:1001A000292C2A20B22D10D060936600382C32946E
:1001B0003A20B32D09D060936700482C4A20B42D13
:1001C00003D0609368000895F1E0E6ED00E0EB0FE6
:1001D000F01F649108953031323334353637383971
:00000001FF
