:020000020000FC
:02000000CCC072
:1000040072C3000000008F938FE08A95F1F78F91FF
:100014000895F7DF6A95E9F77A95D9F7089560E0CE
:1000240074E0F7DF08950F930CE50DB90EB10FB12D
:100034000F9108950F93C398C4980EB10FB10F9107
:100044000FB90EB107FFFDCF0FB1C49A08950F93F6
:10005400C39AC4980EB10FB10F910FB90EB107FF37
:10006400FDCF0FB1C49A0895DEDFD9DF09E3E2DFE3
:10007400C8DF09E3DFDFC5DF0EE1DCDFC2DF00E557
:10008400D9DFBFDF0CE6D6DFCADF07E7D3DFB9DF8E
:100094000CE0D0DFB6DF01E0CDDFB3DF06E0CADF7E
:1000A400B0DF0895C0DF40E14F93F0E0E0E600E800
:1000B400C1DFA7DF0191CBDFA4DF4A95D9F74F91C8
:1000C4004F93F0E0E0E700E9B5DF9BDF0191BFDF8C
:1000D40098DF4A95D9F74F91F0E0E0E800EAAADF0B
:1000E40090DF0191B4DF8DDF4A95D9F708950000C0
:1000F40000008F938FE08A95F1F78F9108959AE02D
:100104009F93F5DF9F919A95D9F708950F931F93C5
:1001140008E11DE01A95F1F70A95D9F71F910F919F
:1001240008950F931F9303E31DE01A95F1F70A95C1
:10013400D9F71F910F9108950F931F9301EF1DE0BD
:100144001A95F1F70A95D9F71F910F9108959BE13C
:100154009F93F2DF9F919A95D9F70895CB99FECF9B
:10016400EBDFCB99FECFDA98D1DFDA9AF0DFD998BA
:10017400CDDF20E1001F111F10F0D89801C0D89ADC
:10018400D998C4DFD99AC2DF2A95A1F7D99AD89A07
:10019400D3DFD2DF089504E00EBF0FE50DBF0FEFEC
:1001A40007BB07EF0ABB00E001BB0FEF02BBA09A3D
:1001B400A89AC09A59DFE1D175DF689400E00BBFBB
:1001C400F894F7E0E2EAE1D1F7E0ECE6DED100E012
:1001D4000093A000C1D100B3087F083FD9F7F7E02E
:1001E400E4EBD3D15FDF869B04C0879B33D02EF72B
:1001F400FACFB2D100B3087F083FD9F7F7E0E6ECB5
:10020400C4D150DF869B06C0879B48D0859BE2CF34
:10021400A6F6F8CFA1D100B3087F083FD9F7F7E0DD
:10022400E8EDB3D13FDF869B06C0879B50D0859B0A
:10023400E0CF1EF6F8CF90D100B3087F083FD9F77E
:10024400F7E0ECEFA2D12EDF879B5BD0859BE2CF5A
:1002540056F7FACFE89487D125DF7ED100B3087F23
:10026400083FC1F778940FEF0ABF03E005BF00E42D
:100274000BBFACD1E4D1FCD110E00FEF07BB12DF10
:10028400032D6CDF0AE06ADF022D68DF012D66DFD3
:10029400002D64DF0EF0EDCFE8940895E89463D167
:1002A40001DF5AD100B3087F083FC1F778940FEFFC
:1002B4000ABF03E005BF00E40BBF76D1C0D1D8D19B
:1002C4000FEF07BBEFDE0EF0F8CFE8940895E89443
:1002D4004AD1E8DE41D100B3087F083FC1F77894E2
:1002E4000FEF0ABF03E005BF00E40BBF0FEF07BB2E
:1002F400BFD1F7E0EAEE49D1D5DE0EF0FECFE894A7
:100304000895E8940FEF0093A0002DD1CBDE24D103
:1003140000B3087F083FA9F740E025D1C3DE7894F5
:100324000FEF0ABF03E005BF00E40BBF00E000933A
:10033400A10043954F934AD182D19AD14F91413034
:1003440029F4E0929000D092910030C0423029F418
:10035400E0929200D092930029C0433029F4E092B5
:100364009400D092950022C0443029F4E092960083
:10037400D09297001BC0453029F4E0929800D092A7
:10038400990014C0463029F4E0929A00D0929B0060
:100394000DC0473029F4E0929C00D0929D0006C025
:1003A400483021F4E0929E00D0929F004F9310E0D9
:1003B4000FEF07BB77DE032DD1DE0AE0CFDE022D7F
:1003C400CDDE012DCBDE002DC9DE4F914EF0009124
:1003D400A1000F3F39F0483009F0A1CF0C948E01F1
:1003E400E894089500E00BBFF894F8E0EEE0CDD077
:1003F400B3D000B3087F083FD9F7E0909000D090C5
:10040400910036D101E000938C004F934BDE4F9165
:10041400879BE1CF839B01C0FBCF9ED000B3087FB5
:10042400083FD9F7E0909200D090930021D102E0E8
:1004340000938C004F9336DE4F91879BCCCF839BE8
:1004440003C0849BD5CFF9CF87D000B3087F083F82
:10045400D9F7E0909400D09095000AD103E000937E
:100464008C004F931FDE4F91879BB5CF839B03C0B6
:10047400849BD3CFF9CF70D000B3087F083FD9F75E
:10048400E0909600D0909700F3D004E000938C00A5
:100494004F9308DE4F91879B9ECF839B03C0849B21
:1004A400D3CFF9CF59D000B3087F083FD9F7E090F4
:1004B4009800D0909900DCD005E000938C004F9315
:1004C400F1DD4F91879B87CF839B03C0849BD3CF60
:1004D400F9CF42D000B3087F083FD9F7E0909A00E3
:1004E400D0909B00C5D006E000938C004F93DADDDA
:1004F4004F91879B70CF839B03C0849BD3CFF9CF4D
:100504002BD000B3087F083FD9F7E0909C00D0902F
:100514009D00AED007E000938C004F93C3DD4F9154
:10052400879B59CF839B03C0849BD3CFF9CF14D02F
:1005340000B3087F083FD9F7E0909E00D0909F0059
:1005440097D008E000938C004F93ACDD4F91879BCC
:1005540042CF849BD5CFFBCF01EF1DE01A95F1F775
:100564000A95D9F70895F7E0EAE50FD0F7E0ECE64D
:100574000CD0F7E0E0E909D0089590E3A0E2F0E0C0
:10058400E0E6A1939A95E9F70895D0E0C0E60591D5
:10059400013021F06096023009F060960591003038
:1005A40011F00993FBCF089501E807BB02E50DB9EB
:1005B400C0980FEF0FB9779BFECF3FB13F700FEF9D
:1005C4000FB9779BFECF2FB1C09A089501E807BBFE
:1005D40002E50DB9C0980FEF0FB9779BFECF3FB17D
:1005E4003F700FEF0FB9779BFECF2FB1C09A303019
:1005F40089F7203079F7F7E0EEE7C7DF53DDC09ADB
:1006040054D00DDD0CDD0BDD0ADDC0980FEF0FB902
:10061400779BFECF3FB13F700FEF0FB9779BFECFB3
:100624002FB1C09A303011F4243658F30FEF07BBC2
:10063400F7E0EEE7AADF39D035DD4AD0089500E1CE
:10064400FF24EE24DD24FF27220F331FDD1CEE1CC4
:10065400FF1C0A9509F40895E0E112911D5F13FD52
:1006640010831081105D17FD1083ED30B1F7ECCFCE
:100674000FE0A02E3E2C32943A20B32D60D060932C
:1006840063002E2C2A20B22D5AD0609365001D2CB5
:1006940012941A20B12D53D0609366000D2C0A20B9
:1006A400B02D4DD06093670008957F936F930F939F
:1006B4000FEF6EE171E06F937F93A898AADCA89A7C
:1006C4007F916F910A95B9F70F916F917F9108957A
:1006D4000FEF1FEF1A950000E9F70A950000C9F71C
:1006E4000000000008953F932F931F930F930FB7BB
:1006F4000F9320B3287F322F2FDF20B3287F2317B7
:1007040061F40091A0000F3F21F420952870283057
:1007140039F00F910FBF689408C00F910FBF05C047
:100724000FEF0093A1000F910FBF16DF00B3087FF6
:10073400083FD9F70F911F912F913F911895F7E03A
:10074400E0E500E0EB0FF01F64910895303132339F
:1007540034353637383901202020202E202020201F
:100764005644432020202000022D2D2D2D2D2D2DEB
:100774002D2D2D2D2D2D2D2D2D0003434150545560
:100784005245442020202020202020000352554E92
:100794004E494E47202020202020202020000120E8
:1007A400202053656C656374204D6F6465202000C0
:1007B40003202043617074757265204D6F64653F3A
:1007C4002000032020202052756E204D6F64653F69
:1007D400202020000320202020486F6C64204D6FCF
:1007E40064653F20200003484F4C44494E47202075
:1007F4002020202020202000034361702F53746F99
:100804007265204D6F64653F200003202020205630
:0C0814006F6C74616765202020202000BC
:00000001FF
