:020000020000FC
:10000000CAC0000000008F938FE08A95F1F78F91AE
:100010000895F7DF6A95E9F77A95D9F7089560E0D2
:1000200074E0F7DF08950F930CE50DB90EB10FB131
:100030000F9108950F93C398C4980EB10FB10F910B
:100040000FB90EB107FFFDCF0FB1C49A08950F93FA
:10005000C39AC4980EB10FB10F910FB90EB107FF3B
:10006000FDCF0FB1C49A0895DEDFD9DF09E3E2DFE7
:10007000C8DF09E3DFDFC5DF0EE1DCDFC2DF00E55B
:10008000D9DFBFDF0CE6D6DFCADF07E7D3DFB9DF92
:100090000CE0D0DFB6DF01E0CDDFB3DF06E0CADF82
:1000A000B0DF0895C0DF40E14F93F0E0E0E600E804
:1000B000C1DFA7DF0191CBDFA4DF4A95D9F74F91CC
:1000C0004F93F0E0E0E700E9B5DF9BDF0191BFDF90
:1000D00098DF4A95D9F74F91F0E0E0E800EAAADF0F
:1000E00090DF0191B4DF8DDF4A95D9F708950000C4
:1000F00000008F938FE08A95F1F78F9108959AE031
:100100009F93F5DF9F919A95D9F708950F931F93C9
:1001100008E11DE01A95F1F70A95D9F71F910F91A3
:1001200008950F931F9303E31DE01A95F1F70A95C5
:10013000D9F71F910F9108950F931F9301EF1DE0C1
:100140001A95F1F70A95D9F71F910F9108959BE140
:100150009F93F2DF9F919A95D9F70895CB99FECF9F
:10016000EBDFCB99FECFDA98D1DFDA9AF0DFD998BE
:10017000CDDF20E1001F111F10F0D89801C0D89AE0
:10018000D998C4DFD99AC2DF2A95A1F7D99AD89A0B
:10019000D3DFD2DF089504E00EBF0FE50DBF0FEFF0
:1001A00007BB0ABBC09A60DF3BD042D07BDF09D0DF
:1001B0007CD094D00FEF08BBF2E0EAE767D072DFA3
:1001C000F6CF01E817BB02E50DB9C0980FEF0FB9E4
:1001D000779BFECF3FB13F700FEF0FB9779BFECFFC
:1001E0002FB1C09A303091F7203081F70FEF0FB95F
:1001F000779BFECF3FB13F700FEF0FB9779BFECFDC
:100200002FB1303011F4203089F3C09A0FEF08BBC2
:10021000C498F2E0E8E63AD096D044DF88D008955A
:1002200090E3A0E2F0E0E0E6A1939A95E9F7089563
:10023000F2E0E4E42BD0F2E0E6E528D0F2E0EAE7F1
:1002400025D0089501202020202E20202020564453
:10025000432020202000022D2D2D2D2D2D2D2D2D44
:100260002D2D2D2D2D2D2D0003434150545552453C
:100270004420202065766D3163000357414954497D
:100280004E472020202065766D316300D0E0C0E627
:100290000591013021F06096023009F060960591D9
:1002A000003011F00993FBCF089500E1FF24EE2404
:1002B000DD24FF27220F331FDD1CEE1CFF1C0A95D7
:1002C00009F40895E0E112911D5F13FD1083108180
:1002D000105D17FD1083ED30B1F7ECCF0FE0A02ECD
:1002E0003E2C32943A20B32D16D0609364002E2C0D
:1002F0002A20B22D10D0609366001D2C12941A2073
:10030000B12D09D0609367000D2C0A20B02D03D0C9
:10031000609368000895F3E0E4E200E0EB0FF01F63
:1003200064910895303132333435363738390FEF30
:100330001FEF1A9500000000E1F70A950000C1F7D1
:100340000000000008957F936F930F930CE064E02A
:1003500071E06F937F93A8985CDEA89A7F916F916C
:0C0360000A95B9F70F916F917F910895F5
:00000001FF
